S01B0000576972656C65735F746865726D6F6D657465722E7372656323
S11300000C940F020C942C020C942C020C942C02D1
S11300100C942C020C942C020C942C020C942C02A4
S11300200C942C020C942C020C942C020C942C0294
S11300300C942C020C942C020C942C020C942C0284
S11300400C942C020C942C020C94850D0C942C0210
S11300500C94BC0D0C949B0C0C942C020C942C0250
S11300600C942C020C942C020C942C020C942C0254
S11300700C942C020C942C020C942C020C942C0244
S11300800C942C020C942C020C942C020C942C0234
S11300900C942C020C942C020C942C020C942C0224
S11300A00C94680D0C942C020C942C020C942C02CD
S11300B00C942C02400203020404010205080B0004
S11300C0010C000C02014E0000034D2007B8C7E7E5
S11300D0FF082107B8C7E7FF082207B8C7E7FF08EA
S11300E02307B8C7E7FF082407B8C7E7FF082507B1
S11300F0B8C7E7FF082607B8C7E7FF082707B8C748
S1130100E7FF08280AB8C751F37E477418290AB8CC
S1130110C7D391BC5F75102A0CB8C7699CE331A999
S1130120F30B002B0CB8C707F3E23084799D032C42
S113013008B8C78B73FE072D09B8C7E7380C393FD9
S11301402E09B8C7E7DF641D052F0CB8C7AEC7F585
S1130150B81EE714003014B8C738855118855118F3
S11301608551188551180D3B063108B8C7D4FB7763
S11301700C320DB8C7B8771AA6BC3EEC1800330C85
S1130180B8C7B8370E79A761C7003410B8C708A339
S1130190300AA3300AA361EF8E01350DB8C738E5E4
S11301A0F561EF34EC18003611B8C738E5F5610A8B
S11301B0A3300AA3301A760C3709B8C7B8F7EF187A
S11301C0003814B8C73885511885D1308551188541
S11301D051180D3B06390FB8C73885511885D1B071
S11301E0771A760C3A0BB8C76795754EB28E023BF8
S11301F007B8C7E7FF083C07B8C7E7FF083D07B8DB
S1130200C7E7FF083E07B8C7E7FF083F07B8C7E7D7
S1130210FF084007B8C7E7FF084116B8C738246984
S11302209226699226C390A4499AA4499A4300420B
S113023016B8C7382469922669324C6992266992A5
S113024026C3904300430CB8C7382479BF0F430E2C
S1130250014414B8C738A5499AA4499AA4499AA450
S1130260499A0C3B06450FB8C73824797DD0F2F67D
S113027061C82100460DB8C73824797DD0F2EE1448
S1130280004713B8C7382479D390A4499AA4499A4B
S11302900C430E014816B8C7489334499334198661
S11302A0244DD2244DD224CD21004908B8C7CBFB1C
S11302B077144A0FB8C71BF25ED2244DD268D031EE
S11302C0004B13B8C7489330CA4AE19AA451981511
S11302D0A33487004C0BB8C7C8FBFB30E410004DB7
S11302E014B8C748134DE9A9922669922669922643
S11302F0690E014E16B8C7101331A925B524AA44B6
S1130300952CA9254525D421004F15B8C719A43427
S113031049933449933449933449A341C700501055
S1130320B8C7382469922669320C49DE9D025115FA
S1130330B8C719B2300AA3300AA3300AA3300AB3EB
S11303406187005215B8C7382469922669320C496E
S1130350350AB36294E61000530FB8C7382479FB0A
S113036030E42DC3904300540AB8C7388479BF934E
S1130370015516B8C7489334499334499334499383
S113038034499361C821005612B8C748933449A32D
S1130390AC4D11933489F31C055714B8C7489334F2
S11303A04993344993A81255FA8BA643005811B8BF
S11303B0C748A3AC3189F33809B3A6348700591070
S11303C0B8C7489334499334198630EF8E025A0DD6
S11303D0B8C738E4B1EA733E0C39045B0BB8C718EC
S11303E0C2BCDF871C055C11B8C7C8913C47F21C2E
S11303F0C97324CF911C035D0BB8C71AF2FE38E40D
S113040018005E0BB8C78B9330CBF937005F09B87F
S1130410C7E73F0D3B0600000004FFFF0000112466
S11304201FBECFEFD8E0DEBFCDBF11E0A0E0B1E04A
S1130430EAEEF3E202C005900D92A837B107D9F7AE
S113044026E0A8E7B1E001C01D92A93FB207E1F799
S11304500E94100E0C94F3110C9400000F931F9340
S1130460DC01ED91FC911197208992960D911C91DC
S11304709397629FB0011124660F771F660F771F51
S1130480660F771F060F171F60E00E94350B1F9140
S11304900F910895EF92FF920F931F93CF93DF93E1
S11304A08C01DC019496FC9094979596DC91959739
S11304B0ED91FC91E188C0E04D2F6C2FC8010E94A2
S11304C02E02CF5FDF5FCF1510F4DE15A8F3DF91A6
S11304D0CF911F910F91FF90EF900895FC01A0819F
S11304E0B18150969C9144A1949FA0011124440F82
S11304F0551F440F551F440F551F60E070E082A143
S113050093A10E94DF0E0895CF93DF93EC010E9424
S11305104A02CE010E948F0BDF91CF91089528E00B
S1130520FC0120838AE791E00895CF92DF92EF9255
S1130530FF920F931F93CF93DF931F92CDB7DEB734
S11305407C016B0189019A0145EB5AE06DE07CE086
S11305500E94750CCE0101960E948F0286012AEE3C
S113056037E04981BC01C7010E942D090F90DF913A
S1130570CF911F910F91FF90EF90DF90CF9008954E
S1130580860F911DFC0184910895FC01E60FF11D75
S1130590849190E03196982F8827E4918E0F911DD5
S11305A0089580E090E008950F931F93CF93DF9315
S11305B0EC018B0160E0C8010E94C002888361E005
S11305C0C8010E94C002898362E0C8010E94C0027F
S11305D08A8363E0C8010E94C0028B8364E0C8017F
S11305E00E94C0028C8365E0C8010E94C0028D8312
S11305F066E0C8010E94C0028E8367E0C8010E94C1
S1130600C0028F8368E0C8010E94C002888769E045
S1130610C8010E94C00289876AE0C8010E94C00222
S11306208A876BE0C8010E94C0028B876CE0C80116
S11306300E94C0028C876DE0C8010E94C0028D87B1
S11306406EE0C8010E94C0028E876FE0C8010E945C
S1130650C0028F8760E1C8010E94C002888B61E1FB
S1130660C8010E94C5029A8B898B63E1C8010E946C
S1130670C5029C8B8B8B65E1C8010E94C5029E8BD1
S11306808D8BDF91CF911F910F910895DC011A9604
S11306904C911A97ED91FC911197249130E0042E1E
S11306A002C0359527950A94E2F7822F942F960F6E
S11306B0983080F088E0841B31961196FC93EE9379
S11306C0E491F0E002C0EE0FFF1F8A95E2F78E2F4F
S11306D0822B985021E030E002C0220F331F6A952C
S11306E0E2F721501A969C93822308950F931F9347
S11306F0CF93DF93EC018C01085B1F4FF8017183EA
S11307006083128673966081C8010E944603F801D3
S1130710808774966081C8010E944603F80181872E
S1130720BC968081F801848791E0811190E0C85BD8
S1130730DF4F9D87DF91CF911F910F910895CF9344
S1130740C62F0E944603C15021E030E002C0220FB0
S1130750331FCA95E2F7821BCF910895213049F0E7
S113076018F0223059F00FC0840F911D47FD9A955F
S11307700895860F911D67FD9A950895841B91092C
S113078047FD93950895861B910967FD93950895F8
S1130790213049F018F0223059F00FC0860F911D16
S11307A067FD9A950895841B910947FD93950895D3
S11307B0861B910967FD93950895840F911D47FD4C
S11307C09A9508956F927F928F929F92AF92BF9263
S11307D0CF92DF92EF92FF920F931F93CF93DF9309
S11307E07C01162F742EFC01E85BFF4F9680D781A5
S11307F0F701E85BFF4FC085C9191C1710F06C2E78
S113080001C0612EF701E85BFF4FC480D5800685E7
S11308108D2E202F4D2F692D828193810E94C80334
S11308205C01202F4D2F692DC6010E94AE03772055
S113083071F0F701E85BFF4F2485BC962083262DD9
S113084030E0AC01B501C7010E94110710C0F701E7
S1130850E85BFF4F238521110AC02585BC962083C0
S1130860262D30E0AC01B501C7010E9411071C1709
S113087020F01C1BDF5F912CBBCF612F690DF701AA
S1130880E85BFF4F66838782DF91CF911F910F91C1
S1130890FF90EF90DF90CF90BF90AF909F908F909C
S11308A07F906F9008956F927F928F929F92AF92F4
S11308B0BF92CF92DF92EF92FF920F931F93CF9349
S11308C0DF93EC017C0188E4E80EF11CCE010E9468
S11308D07603FE01EF5AFF4FC0803C966081C7014A
S11308E00E949F03782EFE01E25AFF4F6081C701E8
S11308F00E949F03182FFE01E15AFF4F6081C70138
S11309000E949F03D82EF701608416140CF09BC03C
S113091006851C0D1195202F412F672D828193810F
S11309200E94C8035C01F70193838283202F412F27
S1130930672D848195810E94AE03F701958384839A
S1130940013089F028F0023001F10330A1F143C0F5
S11309509501260D311D67FC3A958C010C0D111D76
S1130960C7FC1A953AC0A5014C195109C7FC539507
S113097095012F5F3F4F8C01060D111D67FC1A95E1
S1130980BA016F5F7F4F5B0128C0A5014619510969
S113099067FC539595012F5F3F4FBC016C1971099A
S11309A0C7FC73958C010F5F1F4FCB010196FA01B1
S11309B031965F0112C095012C0D311DC7FC3A958B
S11309C0AC014619510967FC53958C010F5F1F4F09
S11309D0CA01019602C08C019501AC01B501CE019A
S11309E00E94C507882379F1FE01E85BFF4F168258
S11309F01782FE01E75AFF4F6081C7010E94460338
S1130A00082FFE01E65AFF4F6081C7010E9446038A
S1130A10182F40E0602FCE010E94E20341E0612FD5
S1130A20CE010E94E20361E0C7010E9446038111E6
S1130A30F0CFFE01E85BFF4F87818C15D4F28485EB
S1130A40CC58DF4F88838D2DDF91CF911F910F916B
S1130A50FF90EF90DF90CF90BF90AF909F908F90DA
S1130A607F906F900895EF92FF920F931F93CF930F
S1130A70DF93FC01EC5BFF4FC081D18167966F3F30
S1130A80710509F038F56136710530F0B69680814C
S1130A909181C80FD91F0AC06134710538F0FC0177
S1130AA0E859FF4F80819181C80FD91FCE0101966B
S1130AB0FC012491222309F43CC0FE01249130E07E
S1130AC06217730711F4019639C0FC018491C80FB1
S1130AD0D11DECCF8B01FC01E459FF4F8081918142
S1130AE0C80FD91F7E0160E0C7010E94C502C80F6C
S1130AF0D91F62E0C7010E94C502F4E0EF0EF11CA9
S1130B008017910780F3FE01849190E0982F882745
S1130B103196E4918E2B009779F00817190719F490
S1130B20CE0103960BC0FE013296E491CE0FD11D87
S1130B30EACF80E090E002C080E090E0DF91CF91C6
S1130B401F910F91FF90EF900895CF93DF93EC01E5
S1130B50FC01E65BFF4F71836083329651834083CF
S1130B60B9010E943305009741F0BC01CE010E94F7
S1130B705304082E000C990B02C080E090E0DF9132
S1130B80CF910895CF92DF92EF92FF920F931F932C
S1130B90CF93DF93EC018B017A016901FC01EA5ADE
S1130BA0FF4F8081813089F028F08230C9F0833092
S1130BB011F12BC0FE01EA5BFF4F0190F081E02DA3
S1130BC0CE010995E80EF91E20C0FE01EA5BFF4F35
S1130BD00190F081E02DCE010995081B190B15C079
S1130BE0FE01EA5BFF4F0190F081E02DCE010995F3
S1130BF0E81AF90A0AC0FE01EA5BFF4F0190F0818E
S1130C00E02DCE010995080F191F9601A701B8011F
S1130C10CE010E94A505DF91CF911F910F91FF9006
S1130C20EF90DF90CF900895AF92BF92CF92DF9272
S1130C30EF92FF920F931F93CF93DF93EC015B012D
S1130C406A0189010E946A09E12CF12CEA81FB8185
S1130C50D8016C91CE0109958F3FBFEF9B0739F105
S1130C600F5F1F4F8E3F2FEF920781F39C01A60168
S1130C70B501CE010E94C2059C01FE01EA5AFF4F54
S1130C809081913049F028F0923049F0933051F03E
S1130C900BC0A20EB31E08C0C20ED31E05C0A21AFA
S1130CA0B30A02C0C21AD30AE20EF31ECFCFC701A1
S1130CB0DF91CF911F910F91FF90EF90DF90CF9034
S1130CC0BF90AF900895EDE5F9E0DC011396FC9335
S1130CD0EE9312970E9414060895FC01EC5BFF4FFB
S1130CE020813181232BE1F1B09620813C96208331
S1130CF03B9740813C96408332973081332381F186
S1130D00313079F439973081231714F43A963083CB
S1130D10FC01E959FF4F2081241714F53A962083EA
S1130D200895022E000C330BFC01EF59FF4FE081B4
S1130D30DC01AD59BF4F5C91652F052E000C770B7C
S1130D406E0F711DE7FD7A95261737071CF41D9663
S1130D50E50FEC93541724F4FC01EF58FF4F508334
S1130D6008958A5B9F4F21ED32E0FC01318320839B
S1130D700895CF93DF93FC01EC5BFF4F2081318119
S1130D802617370751F0EC0171836083895A9F4F0E
S1130D900E94D402CE010E946D06DF91CF91089586
S1130DA0CF93DF93EC01A881B981EB01E881F9814C
S1130DB0EA0FFB1FEA17FB0738F4A217B30718F46E
S1130DC0F901319701C0DA01A217B307A8F44E174D
S1130DD05F07A0F4A417B50708F0AD012E173F076D
S1130DE008F09F01FC0151834083241B350BEB0168
S1130DF03983288381E003C080E001C080E0DF9173
S1130E00CF9108950F93DC019A96ED91FC919B97F5
S1130E104E1B5F0B5E96ED91FC915F9709950F91C8
S1130E200895EF92FF920F931F93CF93DF9300D017
S1130E3000D000D0CDB7DEB77A8369835C834B835F
S1130E403E832D83FC01E259FF4F2081222309F4C4
S1130E5074C02D813E812115310509F46EC0223004
S1130E603105B0F0023041F4621B730B9B012F5F1C
S1130E703F4F3A8329830CC0033051F44B815C818A
S1130E80DA01A21BB30B9D012F5F3F4F3C832B83E1
S1130E907C01102F117000FD1DC0FC0120AD31AD8F
S1130EA08B819C818217930708F447C022AD33AD30
S1130EB08217930708F041C026A937A944A955A968
S1130EC0BE016B5F7F4FCE0101960E94D006811157
S1130ED023C033C0DC01D4962D913C91D5978981F0
S1130EE09A818217930748F1D6962D913C91D79712
S1130EF08217930710F5DA962D913C91DB97D896DB
S1130F004D915C91D997BE016B5F7F4FCE010396E3
S1130F100E94D006882389F0D7019096ED91FC9128
S1130F2091970480F581E02D2D813E814B815C8178
S1130F3069817A81012FC701099526960FB6F89425
S1130F40DEBF0FBECDBFDF91CF911F910F91FF90F8
S1130F50EF9008954617570740F48217930768F0F7
S1130F602417350760F481E008958217930748F445
S1130F702417350740F481E0089581E0089580E066
S1130F80089580E0089580E00895CF92DF92EF9273
S1130F90FF920F931F93CF93DF93EC017B016901C1
S1130FA098016AAD7BAD88AD99AD0E94AA078823EC
S1130FB041F06EA97FA99601A7018CA99DA90E9461
S1130FC0AA07DF91CF911F910F91FF90EF90DF90CF
S1130FD0CF9008950F931F93CF93DF93DC01CA0141
S1130FE0542F5770C1E0D0E0052E02C0CC0FDD1F96
S1130FF00A94E2F71C2FFD01EC58FF4FE081E23028
S113100010F040E001C04C2FE13009F410E0887F7B
S1131010ED91FC911197C089C89FF001C99FF00D13
S1131020112492968D919C9193976E0F7F1FFC01D2
S1131030E60FF71F011108C08081842B812781935B
S113104021503109C9F721C09081942B91279083B5
S11310505F5F577021503109511110C096968D91E0
S11310609C919797E80FF91FED01CC58DF4F8881C9
S1131070823008F441E0813021F404C0440F110FA0
S113108001C011E021153105F9F6DF91CF911F91CF
S11310900F910895CF93DF93FC01A081B18184A1C6
S11310A090E09C01220F331F220F331F220F331FA6
S11310B031A720A750962C91509730E0220F331F70
S11310C0220F331F220F331F37A326A375A1272F07
S11310D030E0A901440F551F440F551F440F551FFD
S11310E053A742A7280F391F51966C915197C62FC9
S11310F0D0E0C217D30718F4CE01871B9109880FDB
S1131100991F880F991F880F991F55A744A7840F0B
S1131110951F97A786A754968D919C91559791AB4F
S113112080AB56968D919C91579793AB82ABDF9190
S1131130CF9108950E944A0808950F931F93CF9367
S1131140DF93EC01FC01EE5BFF4F008111812EADBA
S11311503FAD3297408151816CAD7DAD0E94C50792
S1131160811104C0C259DF4F18822FC081E0FE01F3
S1131170E259FF4F80832CA93DA98CAD9DAD281762
S1131180390710F49DAB8CAB2EA93FA98EAD9FAD52
S11311908217930710F49FAB8EAB28AD39ADFE01D7
S11311A0E05CFF4F808191812817390710F499AFD3
S11311B088AF2AAD3BADFE01EE5BFF4F808191818C
S11311C08217930710F49BAF8AAFDF91CF911F91E1
S11311D00F910895FC0115AA14AA80A991A997ABAF
S11311E086AB84A595A591AF80AF86A597A593AF4F
S11311F082AFCF010E949D0808950F93FA01DC018C
S1131200D2964D915C91D3974E1B5F0B00FF03C0A8
S1131210421B530B02C0415051090E9402070F9117
S11312200895DC01DD961C921E92DC97FC01E05CC3
S1131230FF4F118210822FEF3FEFFC0137AF26AF33
S1131240EE5BFF4F318320839096ED91FC91919753
S11312500280F381E02D099508950F931F93CF9396
S1131260DF93EC01FC01EC5BFF4F118210823F8F96
S11312702E8F7BA36AA34CA31DA23F961082B09627
S1131280108234971082359681E080833196808372
S113129019A308A3D801ED91FC91CE010995CE01C3
S11312A00E941109CE010E94B106CA5ADF4F18826A
S11312B0DF91CF911F910F910895662329F06A3031
S11312C031F0862F90E008958FEF9FEF08958FEF10
S11312D09FEF0895FC01108E0895462FDC011896A7
S11312E0ED91FC91199720E030E060E209950895B2
S11312F09A01DC011896ED91FC911997462F67E14C
S113130009950895CF93DF931F92CDB7DEB7698314
S1131310AE014F5F5F4F61E00E9478090F90DF914B
S1131320CF910895BF92CF92DF92EF92FF920F93E5
S11313301F93CF93DF93EC01B42E7901A881B98177
S11313401C968C911C978170D82E81E0C82ECD18E4
S1131350683109F456C028F46431E9F16731B9F110
S113136074C0693109F45FC0603209F444C06DC0CF
S1131370F70101917F01BA9410E027C0002334F4EF
S113138041E061E4CE010E94530C05C040E061E4F9
S1131390CE010E94530C000F4C2D60E4CE010E943C
S11313A0530CE881F98146816CE2CE010E94530C12
S11313B04D2D60E4CE010E94530CE881F9814781F0
S11313C06CE2CE010E94530C1F5F1830B8F2B110CA
S11313D0CFCF81E03BC011964C9169E4CE010E94CD
S11313E0530CE881F9814485417060E4CE010E9488
S11313F0530C81E02BC06AE4CE010E94530C81E0BF
S113140025C04C9169E4CE010E94530CEA85FB850A
S1131410A881B98120E030E012964C916CE2CE01B3
S1131420099581E013C0EA85FB8520E030E013963E
S11314304C916CE2CE010995E881F981418169E41E
S1131440CE010E94530C81E001C080E0DF91CF9176
S11314501F910F91FF90EF90DF90CF90BF90089570
S1131460462FDC011696ED91FC91179720E030E0B1
S113147065E109950895462FDC011696ED91FC91DE
S1131480179720E030E066E1099508959A01DC01A0
S11314901696ED91FC911797462F67E109950895EB
S11314A0DC011696ED91FC91179720E030E040E0C6
S11314B068E109950895DC011696ED91FC91179762
S11314C020E030E040E069E109950895EF92FF9251
S11314D00F931F93CF93DF931F92CDB7DEB77C0199
S11314E08B01D8016D918D016731B9F018F4653124
S11314F030F433C06A31E8F06E3F31F12EC0FD01A3
S113150041918F014983D7011696ED91FC9117976C
S113151020E030E0C7010995E4CFFD0181918F01FE
S11315208983AE014F5F5F4F61E0C7010E94460AA5
S1131530D8CFD7011696ED91FC91179720E030E0B3
S113154040E0C7010995CDCFFD0141918F01498349
S113155069E2C7010E94530CC4CF0F90DF91CF9171
S11315601F910F91FF90EF900895EF92FF920F93C8
S11315701F93CF93DF938C01C62FD42F790166314B
S1131580A1F028F46431E9F0653131F025C0673108
S1131590A9F06A3108F515C060E00E946D096D2F4D
S11315A0C8010E94820981E018C060E00E946D09B0
S11315B06D2FC8010E94820981E00FC061E00E9482
S11315C06D09D8011896ED91FC91199797014D2F4B
S11315D06C2FC801099501C080E0DF91CF911F9164
S11315E00F91FF90EF900895FC0171836083FB01DC
S11315F02289FC01248B0895CF93DF93EC01EA85C3
S1131600FB8520E030E040E068E20995EE81FF814F
S113161020E030E040E064E1CE01099541E06BE474
S1131620CE010E94530CE881F981448169E2CE0124
S11316300E94530C40E06BE4CE010E94530CE881FD
S1131640F981448169E2CE010E94530C41E06BE4CC
S1131650CE010E94530CE881F981458169E2CE01F3
S11316600E94530CDF91CF9108950F931F93CF9352
S1131670DF9300D000D01F92CDB7DEB76C834D83CB
S11316802B831A830983DC011496ED91FC91159741
S11316909E012F5F3F4F41E06FE009950F900F903F
S11316A00F900F900F90DF91CF911F910F9108959C
S11316B0DC011496ED91FC91159720E030E040E0B8
S11316C069E009950895DC011496ED91FC91159754
S11316D020E030E040E06AE009950895462FDC01FF
S11316E01496ED91FC91159720E030E06BE009959C
S11316F00895462FDC011496ED91FC91159720E096
S113170030E06DE009950895462FDC011496ED91C3
S1131710FC91159720E030E06EE009950895DC0116
S11317201496ED91FC91159720E030E040E060E1E3
S113173009950895DF92EF92FF920F931F93CF9331
S1131740DF938C01C42F79016E3009F44CC06F30E3
S113175021F06B3009F058C038C00E94500AF701DC
S1131760D380DD0CDD0CDD0CF8018489D80E6D2DE1
S113177062956F706061C8010E94300A6D2D6F70B0
S1131780C8010E94300AF7016481606BC8010E949D
S1131790300AF701D281DD0FDD0FDD0FE080F1802B
S11317A08D2D90E08D0F911D8538910510F0D4E8B2
S11317B0DD19A7016D2FC8010E94460AC150C9F75F
S11317C0C8010E945B0A81E020C0411106C069E69D
S11317D071E00E94660A81E018C062E671E00E942E
S11317E0660A81E012C00E94500A61E8C8010E94A2
S11317F0300A6C2F66956695C8010E943B0AC801A1
S11318000E945B0A81E001C080E0DF91CF911F91CB
S11318100F91FF90EF90DF9008950F931F93CF9354
S1131820DF938C01C62FD42F0E949A0B811135C0EF
S1131830CA3059F0CD3099F0C93081F56CE371E0CC
S1131840C8010E94F40A81E029C0C8010E94FC0A70
S11318506BE171E0C8010E94660A81E01FC0D111EA
S11318600EC06BE571E0C8010E94660AD801ED91D3
S1131870FC911197828954968C9381E00FC064E5A2
S113188071E0C8010E94660AD801ED91FC9111979C
S1131890838954968C9381E001C081E0DF91CF91DC
S11318A01F910F910895DC011A96ED91FC911B97FD
S11318B020E030E00995089580E00895FC0111824C
S11318C010828CE59CE0958384839783868391873B
S11318D0808793878287158A108E148615861686CC
S11318E017868FEF868B828F0895AF92BF92CF9227
S11318F0DF92EF92FF920F931F93CF93DF93EC014C
S11319005B016A0179010E945E0CBD82AC82DF82B8
S1131910CE82F986E8861B870A87CE010E94580B7F
S1131920DF91CF911F910F91FF90EF90DF90CF90B7
S1131930BF90AF9008951F920F920FB60F9211248B
S11319408F9381E0809300018F910F900FBE0F90D1
S11319501F901895613441F128F4683259F06034CD
S1131960C9F049C06A34A1F16B34E1F1693409F07A
S113197042C024C087B1846087B987B1886087B9C1
S11319808DB188608DB987B1826087B987B1816074
S113199087B931C0442321F088B1846088B92BC051
S11319A088B18B7F88B927C0442321F088B188602F
S11319B088B921C088B1877F88B91DC0442321F02C
S11319C08EB188608EB917C08EB1877F8EB913C06F
S11319D0442321F088B1826088B90DC088B18D7F1D
S11319E088B909C0442321F088B1816088B903C053
S11319F088B18E7F88B981E00895662399F0DC016F
S1131A00ED91FC91119721E030E0A90112960C9020
S1131A1002C0440F551F0A94E2F7CA019081892B32
S1131A2080830895DC01ED91FC91119721E030E071
S1131A30A90112960C9002C0440F551F0A94E2F7B4
S1131A40CA0180959081892380830895FC013081A7
S1131A502181613099F018F06230F1F0089581E04D
S1131A6090E0028002C0880F991F0A94E2F7E32FE6
S1131A70F22F8095929189238083089581E090E0EC
S1131A80028002C0880F991F0A94E2F7E32FF22F15
S1131A909291892B8083089581E090E0AC010280CB
S1131AA002C0440F551F0A94E2F7A32FB22F4095AA
S1131AB02E9142234C93A081B181028002C0880FF1
S1131AC0991F0A94E2F780959C9189238C93089539
S1131AD01F920F920FB60F9211248F938091D90009
S1131AE0887F809301018F910F900FBE0F901F90FC
S1131AF01895809102010895109202011092FB053D
S1131B001092FA058AE795E008951F920F920FB696
S1131B100F9211248F939F93EF93FF93E091FA0513
S1131B20F091FB058091C600E658FA4F8083E0915E
S1131B30FA05F091FB05E658FA4F80818A3051F49A
S1131B4081E080930201E091FA05F091FB05E558EC
S1131B50FA4F10828091FA059091FB0501969093BB
S1131B60FB058093FA05FF91EF919F918F910F9060
S1131B700FBE0F901F9018951F920F920FB60F92E1
S1131B8011248F9381E0809303018F910F900FBEF6
S1131B900F901F901895442339F0E0ECF0E0208179
S1131BA022602083A8E001C0A0E1B0E09B01AC0169
S1131BB00E94B10E9B01AC0160E072E18AE790E003
S1131BC00E94800EBA01A9014150510961097109AD
S1131BD0DB01CA0188279F70AA27BB27892F9A2F68
S1131BE0AB2FBB278093C5004093C400E1ECF0E029
S1131BF08081886D808386E88093C20008959091E7
S1131C0003019923E1F3109203018093C600089520
S1131C1066E771E00E94DA0E05960E94BC0E0895F4
S1131C20789484E091E09093F6068093F5062AEA8E
S1131C303CE042E959E065E171E08DE796E00E94FD
S1131C40950240E060E076E980E090E00E94CB0DF0
S1131C508DE796E00E94630B60E08DE796E00E94BA
S1131C606E0B61E08DE796E00E94790B68E78DE7E3
S1131C7096E00E94840B61E082E191E00E94260DCF
S1131C8061E082E191E00E94FD0C8DE796E00E9404
S1131C906E0264EB70E08DE796E00E94B9068DE772
S1131CA096E00E9484020E94790D8823E1F30E9449
S1131CB07C0DEC010E94080E803218F48093FC0520
S1131CC003C08FE18093FC058091FC051F928F93E4
S1131CD080E791E09F938F930E94150F9E014EE041
S1131CE050E061E070E08DE796E00E9463068DE7C6
S1131CF096E00E9484020F900F900F900F90D3CF24
S1131D00A1E21A2EAA1BBB1BFD010DC0AA1FBB1FFB
S1131D10EE1FFF1FA217B307E407F50720F0A21B6D
S1131D20B30BE40BF50B661F771F881F991F1A94DA
S1131D3069F760957095809590959B01AC01BD0104
S1131D40CF010895A29FB001B39FC001A39F700D5E
S1131D50811D1124911DB29F700D811D1124911DAF
S1131D6008950E94A20EA59F900DB49F900DA49F6C
S1131D70800D911D11240895FC0188279927E8946A
S1131D8021912032E9F3293010F02E30C8F32B32A0
S1131D9041F02D3239F4689404C00E940D0F820F73
S1131DA0911D219120532A30C0F31EF49095819502
S1131DB09F4F089548E751E00E94E60E0895DC0124
S1131DC001C06D9341505040E0F70895FA01A1918C
S1131DD0B081009719F41097E1F0CD01DC01CD0139
S1131DE00D90002011F4C00113C0FB0121912223A6
S1131DF019F02015D9F7F3CFFB012191201519F41F
S1131E001E92119606C02223C1F70D900020A1F75F
S1131E10D001FA01A193B08308957AE0979F902DA1
S1131E20879F802D910D11240895A0E0B0E0EBE18F
S1131E30FFE00C94CC11AE014B5F5F4FFA0161914E
S1131E407191AF018091F5069091F6060E942B0FD7
S1131E50E2E00C94E811ABE0B0E0E1E3FFE00C94C5
S1131E60BC116C017B018A01FC01178216828381FB
S1131E7081FFCCC1CE0101963C01F6019381F701AB
S1131E8093FD859193FF81917F01882309F4BAC161
S1131E90853239F493FD859193FF81917F018532D9
S1131EA029F4B60190E00E942211E7CF912C212C55
S1131EB0312CFFE1F315D8F08B3279F038F480320D
S1131EC079F08332A1F4232D20611DC08D3261F09D
S1131ED0803369F4232D216016C0832D8260382E4F
S1131EE0E32DE4603E2E2AC0F32DF8601DC037FCBC
S1131EF02DC020ED280F2A3040F08E32B9F436FC84
S1131F0081C1232D2064322E19C036FE06C08AE01A
S1131F10989E200D1124922E11C0EAE02E9E200DD1
S1131F201124222EF32DF0623F2E08C08C3621F4AA
S1131F30832D8068382E02C0883641F4F70193FD62
S1131F40859193FF81917F018111B3CF982F9F7D5C
S1131F509554933028F40C5F1F4F9FE399830DC071
S1131F60833631F0833771F0833509F059C021C0CD
S1131F70F801808189830E5F1F4F88248394912CFC
S1131F80530113C02801F2E04F0E511CF801A08048
S1131F90B18036FE03C0692D70E002C06FEF7FEFA1
S1131FA0C5010E9417114C018201F32DFF773F2ECA
S1131FB016C0280122E0420E511CF801A080B18015
S1131FC036FE03C0692D70E002C06FEF7FEFC501DC
S1131FD00E940C114C01F32DF0683F2E820133FC5A
S1131FE01BC0822D90E088169906B0F4B60180E2F9
S1131FF090E00E9422112A94F4CFF50137FC8591D8
S113200037FE81915F01B60190E00E9422112110F8
S11320102A9421E0821A91088114910471F7E8C08E
S1132020843611F0893641F5F80137FE07C0608126
S11320307181828193810C5F1F4F08C0608171811F
S1132040072E000C880B990B0E5F1F4FF32DFF76A4
S11320503F2E97FF09C090958095709561957F4FAD
S11320608F4F9F4FF0683F2E2AE030E0A3010E947B
S11320705E11882E861845C0853731F4232D2F7EB6
S1132080B22E2AE030E025C0932D997FB92E8F36E9
S1132090C1F018F4883579F0B5C0803719F0883765
S11320A021F0B0C0E92FE061BE2EB4FE0DC0FB2DBF
S11320B0F460BF2E09C034FE0AC0292F2660B22E58
S11320C006C028E030E005C020E130E002C020E195
S11320D032E0F801B7FE07C060817181828193818B
S11320E00C5F1F4F06C06081718180E090E00E5F3D
S11320F01F4FA3010E945E11882E8618FB2DFF77C7
S11321003F2E36FE0DC0232D2E7FA22E891458F4A7
S113211034FE0BC032FC09C0832D8E7EA82E05C070
S1132120B82CA32C03C0B82C01C0B92CA4FE0FC03A
S1132130FE01E80DF11D8081803321F49A2D997EF2
S1132140A92E09C0A2FE06C0B394B39404C08A2D7C
S1132150867809F0B394A3FC11C0A0FE06C0B214A3
S113216088F4280C922C9B180EC0B21460F4B601AB
S113217080E290E00E942211B394F7CFB21418F4D5
S11321802B1802C0982C212CA4FE10C0B60180E3A9
S113219090E00E942211A2FE17C0A1FC03C088E7B0
S11321A090E002C088E590E0B6010CC08A2D8678E4
S11321B059F0A1FE02C08BE201C080E2A7FC8DE2CF
S11321C0B60190E00E942211891438F4B60180E32C
S11321D090E00E9422119A94F7CF8A94F301E80DBB
S11321E0F11D8081B60190E00E9422118110F5CF8B
S11321F0222009F442CEB60180E290E00E9422112E
S11322002A94F6CFF6018681978102C08FEF9FEF63
S11322102B96E2E10C94D811FC01059061507040BA
S11322200110D8F7809590958E0F9F1F0895FC019B
S11322306150704001900110D8F7809590958E0FF1
S11322409F1F08950F931F93CF93DF93FB01238167
S113225021FD03C08FEF9FEF2CC022FF16C04681E3
S11322605781248135814217530744F4A081B181F9
S11322709D012F5F3F4F318320838C9326813781CB
S11322802F5F3F4F3783268314C08B01EC01FB0182
S11322900084F185E02D0995892BE1F6D801169685
S11322A08D919C911797019617969C938E931697F0
S11322B0CE01DF91CF911F910F910895FA01AA27C2
S11322C0283051F1203181F1E8946F936E7F6E5F75
S11322D07F4F8F4F9F4FAF4FB1E03ED0B4E03CD023
S11322E0670F781F891F9A1FA11D680F791F8A1F06
S11322F0911DA11D6A0F711D811D911DA11D20D06D
S113230009F468943F912AE0269F11243019305D26
S11323103193DEF6CF010895462F4770405D419317
S1132320B3E00FD0C9F7F6CF462F4F70405D4A3364
S113233018F0495D31FD4052419302D0A9F7EACF2C
S1132340B4E0A6959795879577956795BA95C9F75B
S113235000976105710508959B01AC010A2E06944E
S11323605795479537952795BA95C9F7620F731F07
S1132370841F951FA01D08952F923F924F925F9244
S11323806F927F928F929F92AF92BF92CF92DF9281
S1132390EF92FF920F931F93CF93DF93CDB7DEB7E6
S11323A0CA1BDB0B0FB6F894DEBF0FBECDBF09947A
S11323B02A88398848885F846E847D848C849B84D1
S11323C0AA84B984C884DF80EE80FD800C811B81DF
S11323D0AA81B981CE0FD11D0FB6F894DEBF0FBE0E
S10D23E0CDBFED010895F894FFCF7E
S11323EA01F801010000000200000000FF0D0000D6
S11323FA00002E00029A08EA08FD081815E215AE34
S113240A154015A115C815A615A2152F15F81600FD
S113241A15271581160715AE15A519FF0001963261
S113242A0101327800093D00000428501008000414
S113243A800040001815A015C019FF1815A115C869
S113244A19FF1815AE15A519FF1815A415AF19FF0C
S10B245A76616C20256420006A
S9030000FC
